:020000040000fa
:080000000002040000000000f2
:020000040000fa
:0400080002030000ef
:020000040000fa
:04000c0002030000eb
:020000040000fa
:0400100002030000e7
:020000040000fa
:0400140002030000e3
:020000040000fa
:0400180002030000df
:020000040000fa
:04001c0002030000db
:020000040000fa
:0400200002030000d7
:020000040000fa
:0400240002030000d3
:020000040000fa
:0400280002030000cf
:020000040000fa
:04002c0002030000cb
:020000040000fa
:0400300002030000c7
:020000040000fa
:0400340002030000c3
:020000040000fa
:0400380002030000bf
:020000040000fa
:04003c0002030000bb
:020000040000fa
:0400400002030000b7
:020000040000fa
:0400440002030000b3
:020000040000fa
:0400480002030000af
:020000040000fa
:04004c0002030000ab
:020000040000fa
:0400500002030000a7
:020000040000fa
:0400540002030000a3
:020000040000fa
:04005800020300009f
:020000040000fa
:04005c00020300009b
:020000040000fa
:040060000203000097
:020000040000fa
:040064000203000093
:020000040000fa
:04006800020300008f
:020000040000fa
:04006c00020300008b
:020000040000fa
:040070000203000087
:020000040000fa
:040074000203000083
:020000040000fa
:04007800020300007f
:020000040000fa
:04007c00020300007b
:020000040000fa
:040080000203000077
:020000040000fa
:040084000203000073
:020000040000fa
:04008800020300006f
:020000040000fa
:04008c00020300006b
:020000040000fa
:040090000203000067
:020000040000fa
:040094000203000063
:020000040000fa
:04009800020300005f
:020000040000fa
:04009c00020300005b
:020000040000fa
:0400a0000203000057
:020000040000fa
:0400a4000203000053
:020000040000fa
:0400a800020300004f
:020000040000fa
:0400ac00c802000086
:020000040000fa
:0400b0000203000047
:020000040000fa
:0400b4000203000043
:020000040000fa
:0400b800020300003f
:020000040000fa
:0400bc00020300003b
:020000040000fa
:0400c0000203000037
:020000040000fa
:0400c4000203000033
:020000040000fa
:0400c800020300002f
:020000040000fa
:0400cc00020300002b
:020000040000fa
:0400d0000203000027
:020000040000fa
:0400d4000203000023
:020000040000fa
:0400d800020300001f
:020000040000fa
:0400dc00020300001b
:020000040000fa
:0400e0000203000017
:020000040000fa
:0400e4000203000013
:020000040000fa
:0400e800020300000f
:020000040000fa
:0400ec00020300000b
:020000040000fa
:0400f0000203000007
:020000040000fa
:0400f4000203000003
:020000040000fa
:0400f80002030000ff
:020000040000fa
:0400fc0002030000fb
:020000040000fa
:0401000002030000f6
:020000040000fa
:0401040002030000f2
:020000040000fa
:0401080002030000ee
:020000040000fa
:04010c0002030000ea
:020000040000fa
:0401100002030000e6
:020000040000fa
:0401140002030000e2
:020000040000fa
:0401180002030000de
:020000040000fa
:04011c0002030000da
:020000040000fa
:0401200002030000d6
:020000040000fa
:0401240002030000d2
:020000040000fa
:0401280002030000ce
:020000040000fa
:04012c0002030000ca
:020000040000fa
:0401300002030000c6
:020000040000fa
:0401340002030000c2
:020000040000fa
:0401380002030000be
:020000040000fa
:04013c0002030000ba
:020000040000fa
:0401400002030000b6
:020000040000fa
:0401440002030000b2
:020000040000fa
:0402080002030000ed
:020000040000fa
:04020c0002030000e9
:020000040000fa
:0402100002030000e5
:020000040000fa
:0402140002030000e1
:020000040000fa
:0402180002030000dd
:020000040000fa
:04021c0002030000d9
:020000040000fa
:0402200002030000d5
:020000040000fa
:0402240002030000d1
:020000040000fa
:0402280002030000cd
:020000040000fa
:04022c0002030000c9
:020000040000fa
:0402300002030000c5
:020000040000fa
:0402340002030000c1
:020000040000fa
:0402380002030000bd
:020000040000fa
:04023c0002030000b9
:020000040000fa
:0402400002030000b5
:020000040000fa
:0402440002030000b1
:020000040000fa
:0402480002030000ad
:020000040000fa
:04024c0002030000a9
:020000040000fa
:0402500002030000a5
:020000040000fa
:0402540002030000a1
:020000040000fa
:04025800020300009d
:020000040000fa
:04025c000203000099
:020000040000fa
:040260000203000095
:020000040000fa
:040264000203000091
:020000040000fa
:04026800020300008d
:020000040000fa
:04026c000203000089
:020000040000fa
:040270000203000085
:020000040000fa
:040274000203000081
:020000040000fa
:04027800020300007d
:020000040000fa
:04027c000203000079
:020000040000fa
:040280000203000075
:020000040000fa
:040284000203000071
:020000040000fa
:04028800020300006d
:020000040000fa
:04028c000203000069
:020000040000fa
:040290000203000065
:020000040000fa
:040294000203000061
:020000040000fa
:04029800020300005d
:020000040000fa
:04029c000203000059
:020000040000fa
:0402a0000203000055
:020000040000fa
:0402a4000203000051
:020000040000fa
:0402a800020300004d
:020000040000fa
:0402ac000203000049
:020000040000fa
:0402b0000203000045
:020000040000fa
:0402b4000203000041
:020000040000fa
:0402b800020300003d
:020000040000fa
:0402bc000203000039
:020000040000fa
:0402c0000203000035
:020000040000fa
:0402c4000203000031
:020000040000fa
:0402c800020300002d
:020000040000fa
:0402cc000203000029
:020000040000fa
:0402d0000203000025
:020000040000fa
:0402d4000203000021
:020000040000fa
:0402d800020300001d
:020000040000fa
:0402dc000203000019
:020000040000fa
:0402e0000203000015
:020000040000fa
:0402e4000203000011
:020000040000fa
:0402e800020300000d
:020000040000fa
:0402ec000203000009
:020000040000fa
:0402f0000203000005
:020000040000fa
:0402f4000203000001
:020000040000fa
:0402f80002030000fd
:020000040000fa
:0402fc0002030000f9
:020000040000fa
:0403000002030000f4
:020000040000fa
:0403040002030000f0
:020000040000fa
:0403080002030000ec
:020000040000fa
:04030c0002030000e8
:020000040000fa
:0403100002030000e4
:020000040000fa
:0403140002030000e0
:020000040000fa
:0403180002030000dc
:020000040000fa
:04031c0002030000d8
:020000040000fa
:0403200002030000d4
:020000040000fa
:0403240002030000d0
:020000040000fa
:0403280002030000cc
:020000040000fa
:04032c0002030000c8
:020000040000fa
:0403300002030000c4
:020000040000fa
:0403340002030000c0
:020000040000fa
:0403380002030000bc
:020000040000fa
:04033c0002030000b8
:020000040000fa
:0403400002030000b4
:020000040000fa
:0403440002030000b0
:020000040000fa
:100400000f8220000e7f24000e01880000000000f3
:10041000000020000000e000020032000001200087
:100420002002880014000700390107000000e000e6
:1004300003003a0060d820000100200002003700cd
:100440000000200001002000810f70000100320038
:1004500014000700000020000000e000020032004d
:100460000000020000000000ae07020000000000d3
:100470000040da000000fe004440a9000000200017
:100480000000e0000300320000002000a00188000e
:100490004440a800000006008a1f78008b1f7800e7
:1004a0000000060091018800800478000000eb0045
:1004b0001a003700e284440032a0b4009905ba0063
:1004c000e284440032a0b4009906ba00e2844400f9
:1004d00032a0b4000006eb00476fde00fd07b2005b
:1004e000636ce10003003a00ebff07000000eb0043
:1004f0000a003700606ce10004003a00005deb0088
:100500008b05e900fdff3e00040037006168e10053
:10051000010032000086eb000b00070019c7ba008b
:100520001905ba000e04e00003003a000a00e000da
:10053000e0ff3a0000000600fe07b2009e018800be
:100540008a047800f5ff3700395dba008b05e900b1
:100550000c003200295dba008b05e900080032006a
:100560000c00e00003003a00e284440032a0b40032
:10057000f5ff370019ddba008b05e900faff3a00f4
:100580008904e800e184440032a0b40000000600c1
:100590003600f800809fbe00829fbe00849fbe0090
:1005a000869fbe000000fa008820a90060c2a90052
:1005b000e7e2a80096000700104088001000200025
:1005c00000408800204080000000e80020408800b3
:1005d00000138000620060000000e00002003a00aa
:1005e00030408000950007000080fa004f03be00f5
:1005f0004f02be004f01be004f00be003600f900a2
:10060000004006000040da000000fe009440a9000f
:1006100080ff2f008421b6008440a900000006005e
:1006200094c0a90080ff2f008a21b60084c0a900d1
:10063000000006009720a90080ff2f009021b6003f
:100640008720a900000006008440a900e7006000a0
:10065000f28f2f00c808dd00230580000301610030
:1006600068006000028170004300de0022058800ff
:1006700061006000b1ff2f004200dd00a204800095
:100680008280600081007000a104880000000600e4
:1006900084c0a900e7006000f28f2f00c808dd00c9
:1006a0003305800003016100680060000281700072
:1006b0004300de003205880061006000f1fb2f007e
:1006c0004600dd00a204800082806000810070008e
:1006d000a1048800000006008720a900e700600050
:1006e000f2f82f00c408dd008305800003016100db
:1006f00068006000028170004300de00820588000f
:1007000061006000f1df2f004900dd00b2048000cd
:100710008280600081007000b10488000000060043
:1007200083ff2f0044182000148a6100010c880008
:10073000120c8800200c88000000060083ff2f00a8
:10074000a4182000148a6100310c8800420c880033
:10075000500c88000000060083ff2f0004192000c1
:10076000148a6100610c8800720c8800800c88007b
:1007700000000600220c800066016100e60f5100b7
:1007800002003200100c8800010c880000000600f6
:10079000520c800066016100e60f51000200320039
:1007a000400c8800310c880000000600820c80009c
:1007b00066016100e60f510002003200700c8800f3
:1007c000610c8800000006008820a900e700600096
:1007d000f2f82f00c408dd00a305800003016100ca
:1007e00068006000028170004300de00a2058800fe
:1007f00061006000d1ff2f0000004000c2048000b3
:100800008280600081007000c10488000000060042
:100810000080eb006002ab000700320060c2a9005c
:100820006342ab000200320040138000000006006b
:1008300040138000f00fb200000006006342ab00de
:1008400001003a00f00fb2004013880000000600db
:1008500084e0a900e7006000f2ff2800cc08dd007a
:1008600033058000030161006800600002817000b0
:100870004300de003205880061006000f1f72f00c0
:100880004700dd00a20480008280600081007000cb
:10089000a1048800000006008500a900e7006000b0
:1008a00082ff2f00680060004305800003016100a3
:1008b0004300de0002817000610060004205880094
:1008c0004800dd00f1ef2f00a2048000828060006c
:1008d00081007000a1048800000006000621ef00de
:1008e00061088800800888001061a90000000600e7
:1008f0000a21ef00710888009008880000000600b7
:10090000300888000000060050088800000006003b
:100910000000050003f0a200889fbe008a9fbe0071
:100920008c1f780002010700090133006450e100c8
:100930004f0032006420e1005200320003826c005c
:1009400007003b000905d0000306d000820f5400c9
:100950000c065d00020039000200320089017800b7
:10096000030678008582550004003d000003fd0069
:100970008103fd008502ea008b854200840f72002e
:1009800002003b0060001000e08018006011b80019
:100990000005eb007a28e1000a0039000600780023
:1009a000c75ddd00f707b200878075002d003700b6
:1009b000828171000a017800610560008180d100a8
:1009c0000080d3008502e900f9ff3b0006044000e7
:1009d0008784480002003b0060041400e0841c008f
:1009e0000988a300070032008a81710082817100aa
:1009f000610164008904d1000884d3008b05e800fc
:100a0000170037000978a30013003a000b00e0003c
:100a1000130034008b05e9000804440089844c006d
:100a20000a4474000978a3000d003a000b00e000ae
:100a3000070034008b05e9000804440089844c0059
:100a400001003a000b0020000978a300f7ff3200f4
:100a50000001eb0002003700828171000a0178007a
:100a6000780007000cf0a70001f0a000c1003700db
:100a70006420e10002003a00838f6c00c100330063
:100a80000801be000200be00ba003700889fbe0009
:100a90008a9fbe008c1f7800a5000700ac003300c1
:100aa00003866c006450e1002e0032006420e100f7
:100ab000330032006150e1002f0032006120e1007c
:100ac0003100320085855500eb07b0000900200099
:100ad00008042000050037000804440089844c0005
:100ae0000a0031000603430087834b0000015300d6
:100af00081815b00f8ff33000203be000800a00004
:100b00000804440089844c00f6ff3900c639dd0032
:100b10008301730001003200130020008904d1001a
:100b20000884d3000998a300050032000800a7003c
:100b30000300a0008904d1000884d3008b05e800dd
:100b40008904d1000884d3000001eb000281d200a7
:100b50003c00070001f0a1000cf0a70001f0a0008c
:100b6000840037006420e100860032000801be00e6
:100b70000200be00f7ff37006120e1008100320073
:100b80006000b800f3ff37000000200001f82700e4
:100b9000f0ff3700839f68000100e00002003d0085
:100ba00060001000e08018000300e00002003d003b
:100bb00060011100e0811900a90007004f00e0006a
:100bc00002003b0060001000e080180000000600fa
:100bd0000001be00410007000470a70003f0a1005f
:100be00003f8a30013003a006509b10010003200b9
:100bf000090035006928e1000200350001002800e5
:100c00000000050000004000818048008502e900e6
:100c1000fcff3a0000000600f88f42000500350096
:100c20008100d1000080d3008502e800fcff3a007b
:100c3000000006008000eb00000005006011b80015
:100c40009700370081002000618055000b003d00b7
:100c50000b00200061fe2f000100e1001d003400a8
:100c600082817100610164008904d1000884d3008d
:100c70000000e800faff3a00710020006100640003
:100c800003007000020060000900320061044400ab
:100c9000e0844c000988a500050032008b05e800bf
:100ca0006808e10002003a008904d1000884d300fa
:100cb000f20f20000258e10005003d00c75ddd0095
:100cc000f907b2008980750008007800000006006e
:100cd0000bf827008b00780000000500c70ade0033
:100ce000f107b200f50fb20008003200e1cf420078
:100cf000020032000170a00024000500810f700086
:100d0000010032000408050044000500810f700056
:100d100002003a00140005008502e90000004000ce
:100d200081c04800fcff3b000170a00024000500ca
:100d30000004be00e9ff07000003be000405be007a
:100d40000200be00e5ff0700844f750000000600aa
:100d50000200be006450e100050036006420e1009e
:100d6000020036000968a30001003a000800be0036
:100d70000160a0004f0678004f05be004f04be0082
:100d800000000600f0ff2f00f1ff2700f9ff3700f9
:100d9000889fbe008a9fbe008c1f7800e4ff07007a
:100da000ebff330003866c006450e1002400320046
:100db0006420e100270032006150e100220032008f
:100dc0006120e100210032008b854200eb07b10079
:100dd0000134b800003ab8000804420089844a008f
:100de000013ab8000030b8008880400009014a008c
:100df00004003300000040008180480002014900e7
:100e00008b05e900c909dd00830170000100320093
:100e100013002000c814de004814dd004709de007e
:100e20001200b200c808de000884700085ff0700c9
:100e300001f0a1000cf0a70001f0a000cdff3700e9
:100e40006120e100cfff32000801be000200be00b9
:100e5000f7ff37006150e100fcff3a00c9ff37009f
:100e60006022b800060220000000d0008180d2007d
:100e70000482d2008582d2000000a000020252004b
:100e800083825a00030031000202420083824a003a
:100e90000000a1000603e900f3ff3a00000006008d
:100ea000889fbe008a9fbe0000827000040271000d
:100eb00004827100260032000004be000200be0061
:100ec0006011b8006b092000950220000182cf005c
:100ed0000a0039000541b1000082cf000700390047
:100ee0000541b1000982cf00040039000541b1007d
:100ef0000882cf00010039000541b10005425200cf
:100f0000120032000a003b0082817100610164001e
:100f10008100d1000080d3008984d3000884d300ed
:100f20008b05e8000442e800f7ff3a0007003700ad
:100f30000804440089844c00000048008180480077
:100f40008b05e9000442e900f9ff3a003dff070084
:0c0f50004f05be004f04be00000006006c
:020000040000fa
:100f5c003400fa00889fbe000000eb0010079800d8
:100f6c001000200001002000200798003107980095
:100f7c001000200001002000400798005107980045
:100f8c0010002000010020006007980071079800f5
:100f9c000000eb00000f98000000eb00700f9800b1
:100fac000000eb0000179800200320001017980099
:100fbc000000eb00201798000040eb0060679800e1
:100fcc000040eb00706798000040eb002057980041
:100fdc000040eb00305798000040eb004057980061
:100fec000040eb00505798000040eb006057980011
:100ffc000040eb00006f98000040eb007057980029
:10100c000040eb00005f98000040eb00105f980080
:10101c000040eb00205f98000040eb00305f980030
:10102c000008280010138800000028000013880016
:10103c00e422ef0072fd070070ff2f007ffd070018
:10104c00e2132000c113200050ff2d00b1fd07005a
:10105c0070fd070070ff2f008afd0700e2132000cf
:10106c00c113200050ff2d00b1fd070070ff2f00b1
:10107c00f4fd07000000eb001efe0700e11320004a
:10108c00f0f82f0012fe07000000280080088800ee
:10109c0065fd070070ff2f008cfd07000081eb0041
:1010ac00d1ff2f00d0ff2d00a8fd0700d1ff2f008e
:1010bc000000eb00bafd070070ff2f00f3fd0700e6
:1010cc000000eb000dfe0700e1ff2f00f0f82f00f1
:1010dc0004fe07000001280090088800000e200084
:1010ec00001988002223ef0020f02100201988002d
:1010fc00a0ff2f0060198800f0ff2b00501988000a
:10110c002e23ef003023ef0021e3a800e0ff2f0097
:10111c00aafd07000500370000000000030037009f
:10112c00000000000100370000000000b240800009
:10113c0010c0b30011032000810f510001003600d4
:10114c000040eb00d21680000108200081006100f5
:10115c0001f0a7008100ea008100e900cf08de0061
:10116c0081407800014060000004e000060032007d
:10117c000040eb00205f98000040eb00105f9800ef
:10118c000040eb00305f9800b240800010c0b3000c
:10119c00810c2000810f510001003e000040eb004b
:1011ac00d2168000010820008100610001f0a70028
:1011bc008100ea008100ea00cf08de00814078005f
:1011cc00014060000004e0000600320010c0b300d3
:1011dc00205f98000040eb00105f980030c0b30017
:1011ec00305f9800b240800010c0b300810c20002a
:1011fc00810f510001003e000040eb00d216800030
:10120c00010820008100610001f0a7008100ea00c4
:10121c008100e900cf08de008140780001406000c9
:10122c000004e0000600320010c0b300205f9800fc
:10123c000040eb00105f980010c0b300305f9800c6
:10124c00b240800010c0b30011032000810f510088
:10125c00010036000040eb00d2168000010820008f
:10126c008100610001f0a7008100ea008100ea0022
:10127c00cf08de0081407800014060000004e000ef
:10128c00060032000040eb00205f980010c0b30055
:10129c00105f980020c0b300305f9800b24080000f
:1012ac0011c0b30040062000800f510001003e0029
:1012bc008040eb00b340800010c0b300720c2000e3
:1012cc00828f5100010036000040eb0000c060002e
:1012dc000004e0000600320010c0b300205f98004c
:1012ec000040eb00105f980040c0b300305f9800e6
:1012fc001e589000e14f500004003a000040eb00f3
:10130c00005f98000040eb00705798002e5890003a
:10131c000004e00004003a000040eb00005f98007d
:10132c000040eb007057980000408000e10f500027
:10133c0083003a000028ef00e7e2a900204080007b
:10134c00e40f50000e003a000428ef0020012000aa
:10135c00304088001e007800e10f500002003a0077
:10136c0010408000205798001e007800e20f5000bb
:10137c0073003a00104080007057980070003700de
:10138c0020408000e10f500031003a0011408000f5
:10139c00010f78001e0078000000a20000f0a700ea
:1013ac000000ea000000e9004f00de0080407800f9
:1013bc001e0178006b00690000f0a7000000ea0035
:1013cc000000e9004f00de000040780000c068001b
:1013dc000004e000030032004e5090000080fb003f
:1013ec00304088001e0078000010a20000f0a7001a
:1013fc000000ea000000e9004f00de0080407800a9
:10140c009e0178006c80690000f0a7000000ea00e3
:10141c000000e9004f00de000040780000c06800ca
:10142c000004e000030032006e5090000080fb00ce
:10143c00304088001e007800e30f500040003a0056
:10144c003e5890000080fb00304088003c00370084
:10145c0020408000e20f50002b003a001e00780064
:10146c000000a20000f0a7000000ea000000e90064
:10147c004f00de00804078001e0178006b00690090
:10148c0000f0a7000000ea000000e9004f00de00b9
:10149c000040780000c068000004e0000300320047
:1014ac005e5090000080fb00304088001e007800e9
:1014bc000010a20000f0a7000000ea000000e90004
:1014cc004f00de00804078009e0178006c8069003f
:1014dc0000f0a7000000ea000000e9004f00de0069
:1014ec000040780000c068000004e00001003200f9
:1014fc000628ef001e007800e30f500010003a00a1
:10150c000628ef000e00370020408000e30f50004b
:10151c000b003a000628ef001e007800e10f500087
:10152c0002003a0010408000305798001e007800ee
:10153c00e20f500002003a0010408000005f98005b
:10154c000e5890000080fb00700f98007e509000a9
:10155c000080fb00001798007e0890000080e800d7
:10156c00800078000000eb007ffc07000e1090005c
:10157c000080e800800078000000eb0081fc070090
:10158c003e5090000080fb00000f98002e50900001
:10159c000081fb008e089000f00f20000088b9003d
:1015ac000000780000004100000f98008e089000a9
:1015bc00c02b2000808f500002003600c02b200072
:1015cc00000f98002823ef002023a8000000000043
:1015dc0000198000610060000000e000fcff320098
:1015ec002003a90001188000511798005e1090008c
:1015fc004200de00501798005e1090006057980073
:10160c00e0012000401988002023a8000000000001
:10161c0000198000610060000000e000fcff320057
:10162c002003a90000188000b0408800b040800062
:10163c004200de00b040880090408000f500680059
:10164c0001f0a7008100ea008100e900cf08de006c
:10165c00814078000000e800904088000104e00020
:10166c00adfe32001228ef006e0190006217980058
:10167c008e0890006e109000808f50006b00390027
:10168c00c04080008e089000808050006e1090004a
:10169c00808f50002c003600ee089000f0a52e0034
:1016ac00808f50000a003e00a04080000000e8003f
:1016bc00a0408800a0408000e70f500004003a00d2
:1016cc006e0890000000e800600f98001428ef00ee
:1016dc00ee08900000a62e00808f500002003a0009
:1016ec00d0ff2f00600f98008140800010c0b30025
:1016fc00822c2300828f500001003c000040eb0044
:10170c008100e800814088000004e0009b0032006a
:10171c00f0408000e50f500003003c00f0408000da
:10172c000000e800f04088001028ef00f040800036
:10173c00800078000e0890000088b9000000780046
:10174c00704088008d00370063408000131f9800a4
:10175c00d24080008e0990006e10900000805100e5
:10176c000000e80080017800110009000381d80016
:10177c000001780010c0b3009e189000828f5000ba
:10178c0001003e000040eb001e1990008200e800b2
:10179c00614088000004e0000e0032000c28ef00cd
:1017ac00ee1090000e089000808f500003003e0059
:1017bc00704080000000e80070408800714080009c
:1017cc0000132100808f500002003600001321000e
:1017dc00704088000e0890008000e8006e109000a9
:1017ec000000e80080017800110009008380d80017
:1017fc000000400000017800704080006f00b900cc
:10180c0000007800000141008e0890006e109000de
:10181c0080805000001920000088b900000078007a
:10182c0000004100600f9800540037008e089000b3
:10183c006e109000808f50005000310011c0b3002a
:10184c006e1190000e089000800f510001003e00b8
:10185c008040eb006e109000e301500010c0b3000c
:10186c000e099000828f5100010039000040eb00fe
:10187c0000c060000004e000370032000e08900049
:10188c008000e8006e1090000000e8000001780075
:10189c00110009008280d800000040008000eb009d
:1018ac00e3fc07000004be00704080008000eb00e9
:1018bc00dffc070082142e00a3f9230070fc070044
:1018cc0002002000031724002efd07000001be00bb
:1018dc000800be000dfc07000004be00ee109000d6
:1018ec000e08900080805000001920000088b9007c
:1018fc00000078008000eb00cdfc07000001be006a
:10190c000800be0000fc0700aefc0700600f98004a
:10191c0061408000e240800010c0b300828f500014
:10192c0001003e000040eb008100e80061408800af
:10193c000004e000110032000c28ef007040800021
:10194c000000e0000d003200704080000000e90053
:10195c0070408800090037006e109000e3005000c2
:10196c000e089000808f5000040036000e08900086
:10197c007900b90000007800600f98006e089000a4
:10198c00e40f400002003600c0ff2f00600f9800eb
:10199c00d1ff2f006e08900000805000800078006e
:1019ac000000eb007efb070020002000401988009f
:1019bc002023a800000000000019800061006000d6
:1019cc000000e000fcff32002003a9000318800097
:1019dc0073179800fe109000b00220000088b90028
:1019ec00000078008000d100b04721000008b8004a
:1019fc000100d100601798006e1090008000eb0081
:101a0c004e019000de0190000200400083804800ef
:101a1c004007980051079800504080000000e800f3
:101a2c00504088005140800080bb2000808f5000c7
:101a3c00bbfd3a004e009000de00900082bb2000ff
:101a4c000300200050fc0700400798005107980045
:101a5c000a28ef004e019000de019000620798000a
:101a6c00730798006000b800400798005107980071
:101a7c002e019000be0190006e009000fe009000c0
:101a8c00020040008380480020079800310798002e
:101a9c001e0090000000e800100798001e00900047
:101aac00fe0f5000a0fd3a000000eb00100798005c
:101abc002e009000be009000e201200003002000e8
:101acc0031fc07002007980031079800ae01900008
:101adc00031f98000e189000405798000e189000a5
:101aec004800de00001f98000e1890005057980018
:101afc006000b80020079800310798008bfd370074
:020000040000fa
:101b0c000008000018000000000000001808000089
:101b1c0008000000020000000f00d0008400e2006a
:081b2c000100000000000000b0
:020000040000fa
:0200000401f009
:04000800ffff0000f6
:020000040000fa
:0200000401f009
:04000c007bff000076
:020000040000fa
:0200000401f009
:040010003eff0000af
:020000040000fa
:0200000401f009
:040014007fff00006a
:00000001FF
