:020000040000fa
:080000000002040000000000f2
:020000040000fa
:0400080002030000ef
:020000040000fa
:04000c0002030000eb
:020000040000fa
:0400100002030000e7
:020000040000fa
:0400140002030000e3
:020000040000fa
:0400180002030000df
:020000040000fa
:04001c0002030000db
:020000040000fa
:0400200002030000d7
:020000040000fa
:0400240002030000d3
:020000040000fa
:0400280002030000cf
:020000040000fa
:04002c0002030000cb
:020000040000fa
:0400300002030000c7
:020000040000fa
:0400340002030000c3
:020000040000fa
:0400380002030000bf
:020000040000fa
:04003c0002030000bb
:020000040000fa
:0400400002030000b7
:020000040000fa
:0400440002030000b3
:020000040000fa
:0400480002030000af
:020000040000fa
:04004c0002030000ab
:020000040000fa
:0400500002030000a7
:020000040000fa
:0400540002030000a3
:020000040000fa
:04005800020300009f
:020000040000fa
:04005c00020300009b
:020000040000fa
:040060000203000097
:020000040000fa
:040064000203000093
:020000040000fa
:04006800020300008f
:020000040000fa
:04006c00020300008b
:020000040000fa
:040070000203000087
:020000040000fa
:040074000203000083
:020000040000fa
:04007800020300007f
:020000040000fa
:04007c00020300007b
:020000040000fa
:040080000203000077
:020000040000fa
:040084000203000073
:020000040000fa
:04008800020300006f
:020000040000fa
:04008c00020300006b
:020000040000fa
:040090000203000067
:020000040000fa
:040094000203000063
:020000040000fa
:04009800020300005f
:020000040000fa
:04009c00020300005b
:020000040000fa
:0400a0000203000057
:020000040000fa
:0400a4000203000053
:020000040000fa
:0400a800020300004f
:020000040000fa
:0400ac00c802000086
:020000040000fa
:0400b0000203000047
:020000040000fa
:0400b4000203000043
:020000040000fa
:0400b800020300003f
:020000040000fa
:0400bc00020300003b
:020000040000fa
:0400c0000203000037
:020000040000fa
:0400c4000203000033
:020000040000fa
:0400c800020300002f
:020000040000fa
:0400cc00020300002b
:020000040000fa
:0400d0000203000027
:020000040000fa
:0400d4000203000023
:020000040000fa
:0400d800020300001f
:020000040000fa
:0400dc00020300001b
:020000040000fa
:0400e0000203000017
:020000040000fa
:0400e4000203000013
:020000040000fa
:0400e800020300000f
:020000040000fa
:0400ec00020300000b
:020000040000fa
:0400f0000203000007
:020000040000fa
:0400f4000203000003
:020000040000fa
:0400f80002030000ff
:020000040000fa
:0400fc0002030000fb
:020000040000fa
:0401000002030000f6
:020000040000fa
:0401040002030000f2
:020000040000fa
:0401080002030000ee
:020000040000fa
:04010c0002030000ea
:020000040000fa
:0401100002030000e6
:020000040000fa
:0401140002030000e2
:020000040000fa
:0401180002030000de
:020000040000fa
:04011c0002030000da
:020000040000fa
:0401200002030000d6
:020000040000fa
:0401240002030000d2
:020000040000fa
:0401280002030000ce
:020000040000fa
:04012c0002030000ca
:020000040000fa
:0401300002030000c6
:020000040000fa
:0401340002030000c2
:020000040000fa
:0401380002030000be
:020000040000fa
:04013c0002030000ba
:020000040000fa
:0401400002030000b6
:020000040000fa
:0402080002030000ed
:020000040000fa
:04020c0002030000e9
:020000040000fa
:0402100002030000e5
:020000040000fa
:0402140002030000e1
:020000040000fa
:0402180002030000dd
:020000040000fa
:04021c0002030000d9
:020000040000fa
:0402200002030000d5
:020000040000fa
:0402240002030000d1
:020000040000fa
:0402280002030000cd
:020000040000fa
:04022c0002030000c9
:020000040000fa
:0402300002030000c5
:020000040000fa
:0402340002030000c1
:020000040000fa
:0402380002030000bd
:020000040000fa
:04023c0002030000b9
:020000040000fa
:0402400002030000b5
:020000040000fa
:0402440002030000b1
:020000040000fa
:0402480002030000ad
:020000040000fa
:04024c0002030000a9
:020000040000fa
:0402500002030000a5
:020000040000fa
:0402540002030000a1
:020000040000fa
:04025800020300009d
:020000040000fa
:04025c000203000099
:020000040000fa
:040260000203000095
:020000040000fa
:040264000203000091
:020000040000fa
:04026800020300008d
:020000040000fa
:04026c000203000089
:020000040000fa
:040270000203000085
:020000040000fa
:040274000203000081
:020000040000fa
:04027800020300007d
:020000040000fa
:04027c000203000079
:020000040000fa
:040280000203000075
:020000040000fa
:040284000203000071
:020000040000fa
:04028800020300006d
:020000040000fa
:04028c000203000069
:020000040000fa
:040290000203000065
:020000040000fa
:040294000203000061
:020000040000fa
:04029800020300005d
:020000040000fa
:04029c000203000059
:020000040000fa
:0402a0000203000055
:020000040000fa
:0402a4000203000051
:020000040000fa
:0402a800020300004d
:020000040000fa
:0402ac000203000049
:020000040000fa
:0402b0000203000045
:020000040000fa
:0402b4000203000041
:020000040000fa
:0402b800020300003d
:020000040000fa
:0402bc000203000039
:020000040000fa
:0402c0000203000035
:020000040000fa
:0402c4000203000031
:020000040000fa
:0402c800020300002d
:020000040000fa
:0402cc000203000029
:020000040000fa
:0402d0000203000025
:020000040000fa
:0402d4000203000021
:020000040000fa
:0402d800020300001d
:020000040000fa
:0402dc000203000019
:020000040000fa
:0402e0000203000015
:020000040000fa
:0402e4000203000011
:020000040000fa
:0402e800020300000d
:020000040000fa
:0402ec000203000009
:020000040000fa
:0402f0000203000005
:020000040000fa
:0402f4000203000001
:020000040000fa
:0402f80002030000fd
:020000040000fa
:0402fc0002030000f9
:020000040000fa
:0403000002030000f4
:020000040000fa
:0403040002030000f0
:020000040000fa
:0403080002030000ec
:020000040000fa
:04030c0002030000e8
:020000040000fa
:0403100002030000e4
:020000040000fa
:0403140002030000e0
:020000040000fa
:0403180002030000dc
:020000040000fa
:04031c0002030000d8
:020000040000fa
:0403200002030000d4
:020000040000fa
:0403240002030000d0
:020000040000fa
:0403280002030000cc
:020000040000fa
:04032c0002030000c8
:020000040000fa
:0403300002030000c4
:020000040000fa
:0403340002030000c0
:020000040000fa
:0403380002030000bc
:020000040000fa
:04033c0002030000b8
:020000040000fa
:0403400002030000b4
:020000040000fa
:100400000f8220000e7f24000e01880000000000f3
:10041000000020000000e000020032000001200087
:100420002002880014000700390107000000e000e6
:1004300003003a0060902000010020000200370015
:100440000000200001002000810f70000100320038
:1004500014000700000020000000e000020032004d
:100460000000020000000000c804020000000000bc
:100470000040da000000fe004440a9000000200017
:100480000000e0000300320000002000a00188000e
:100490004440a800000006008a1f78008b1f7800e7
:1004a0000000060091018800800478000000eb0045
:1004b0001a003700e284440032a0b4009905ba0063
:1004c000e284440032a0b4009906ba00e2844400f9
:1004d00032a0b4000006eb00476fde00fd07b2005b
:1004e000636ce10003003a00ebff07000000eb0043
:1004f0000a003700606ce10004003a00005deb0088
:100500008b05e900fdff3e00040037006168e10053
:10051000010032000086eb000b00070019c7ba008b
:100520001905ba000e04e00003003a000a00e000da
:10053000e0ff3a0000000600fe07b2009e018800be
:100540008a047800f5ff3700395dba008b05e900b1
:100550000c003200295dba008b05e900080032006a
:100560000c00e00003003a00e284440032a0b40032
:10057000f5ff370019ddba008b05e900faff3a00f4
:100580008904e800e184440032a0b40000000600c1
:100590003600f800809fbe00829fbe00849fbe0090
:1005a000869fbe000000fa008820a90060c2a90052
:1005b000e7e2a80096000700104088001000200025
:1005c00000408800204080000000e80020408800b3
:1005d00000138000620060000000e00002003a00aa
:1005e00030408000950007000080fa004f03be00f5
:1005f0004f02be004f01be004f00be003600f900a2
:10060000004006000040da000000fe009440a9000f
:1006100080ff2f008421b6008440a900000006005e
:1006200094c0a90080ff2f008a21b60084c0a900d1
:10063000000006009720a90080ff2f009021b6003f
:100640008720a900000006008440a900e7006000a0
:10065000f28f2f00c808dd00230580000301610030
:1006600068006000028170004300de0022058800ff
:1006700061006000b1ff2f004200dd00a204800095
:100680008280600081007000a104880000000600e4
:1006900084c0a900e7006000f28f2f00c808dd00c9
:1006a0003305800003016100680060000281700072
:1006b0004300de003205880061006000f1fb2f007e
:1006c0004600dd00a204800082806000810070008e
:1006d000a1048800000006008720a900e700600050
:1006e000f2f82f00c408dd008305800003016100db
:1006f00068006000028170004300de00820588000f
:1007000061006000f1df2f004900dd00b2048000cd
:100710008280600081007000b10488000000060043
:1007200083ff2f0044182000148a6100010c880008
:10073000120c8800200c88000000060083ff2f00a8
:10074000a4182000148a6100310c8800420c880033
:10075000500c88000000060083ff2f0004192000c1
:10076000148a6100610c8800720c8800800c88007b
:1007700000000600220c800066016100e60f5100b7
:1007800002003200100c8800010c880000000600f6
:10079000520c800066016100e60f51000200320039
:1007a000400c8800310c880000000600820c80009c
:1007b00066016100e60f510002003200700c8800f3
:1007c000610c8800000006008820a900e700600096
:1007d000f2f82f00c408dd00a305800003016100ca
:1007e00068006000028170004300de00a2058800fe
:1007f00061006000d1ff2f0000004000c2048000b3
:100800008280600081007000c10488000000060042
:100810000080eb006002ab000700320060c2a9005c
:100820006342ab000200320040138000000006006b
:1008300040138000f00fb200000006006342ab00de
:1008400001003a00f00fb2004013880000000600db
:1008500084e0a900e7006000f2ff2800cc08dd007a
:1008600033058000030161006800600002817000b0
:100870004300de003205880061006000f1f72f00c0
:100880004700dd00a20480008280600081007000cb
:10089000a1048800000006008500a900e7006000b0
:1008a00082ff2f00680060004305800003016100a3
:1008b0004300de0002817000610060004205880094
:1008c0004800dd00f1ef2f00a2048000828060006c
:1008d00081007000a1048800000006000621ef00de
:1008e00061088800800888001061a90000000600e7
:1008f0000a21ef00710888009008880000000600b7
:10090000300888000000060050088800000006003b
:1009100000000500839f68000100e00002003d0028
:1009200060001000e08018000300e00002003d00bd
:1009300060011100e0811900050007004f00e00090
:1009400002003b0060001000e0801800000006007c
:100950006022b800060220000000d0008180d20092
:100960000482d2008582d2000000a0000202520060
:1009700083825a00030031000202420083824a004f
:100980000000a1000603e900f3ff3a0000000600a2
:020000040000fa
:100990002a00fa000000eb00100798001000200069
:1009a0000100200020079800310798001000200067
:1009b0000100200040079800510798001000200017
:1009c00001002000200f9800310f98000000eb007c
:1009d000400f98000000eb00500f98000000eb0063
:1009e000600f98000040eb00404f98000040eb0083
:1009f000504f98000040eb00605f98000040eb0013
:100a0000705f98000040eb00604f98000040eb00e2
:100a1000704f98000040eb00005798000040eb003a
:100a2000105798000040eb00205798000040eb0062
:100a30003057980010c0b3000067980000082800e5
:100a4000101388000000280000138800e422ef0043
:100a5000eefe070070ff2f00fbfe0700e2132000f0
:100a6000c113200050ff2d002dff0700ecfe0700f2
:100a700070ff2f0006ff0700e2132000c1132000c3
:100a800050ff2d002dff070070ff2f0070ff0700a3
:100a90000000eb009aff0700e1132000f0f82f00a0
:100aa0008eff07000000280080088800e1fe070094
:100ab00070ff2f0008ff07000081eb00d1ff2f001f
:100ac000d0ff2d0024ff0700d1ff2f000000eb0016
:100ad00036ff070070ff2f006fff07000000eb00dc
:100ae00089ff0700e1ff2f00f0f82f0080ff0700cb
:100af0000001280090088800000e200000198800de
:100b00002223ef0020f0210020198800a0ff2f00f1
:100b100060198800f0ff2b00501988002e23ef0089
:100b20003023ef0021e3a800e0ff2f0026ff07009d
:100b30000300370000000000010037000000000043
:100b4000b240800010c0b30011032000810f51009b
:100b5000010036000040eb00d216800001082000a2
:100b60008100610001f0a7008100ea008100e90036
:100b7000cf08de0081407800014060000004e00002
:100b8000060032000040eb00205798000040eb00c8
:100b9000105798000040eb0030579800b24080009a
:100ba00010c0b300810c2000810f510001003e00f5
:100bb0000040eb00d2168000010820008100610097
:100bc00001f0a7008100ea008100ea00cf08de0002
:100bd00081407800014060000004e000060032001f
:100be00010c0b300205798000040eb001057980049
:100bf00030c0b30030579800b240800010c0b3003e
:100c0000810c2000810f510001003e000040eb00ec
:100c1000d2168000010820008100610001f0a700c9
:100c20008100ea008100e900cf08de008140780001
:100c3000014060000004e0000600320010c0b30074
:100c4000205798000040eb001057980010c0b300e8
:100c500030579800b240800010c0b300110320004c
:100c6000810f5100010036000040eb00d2168000d9
:100c7000010820008100610001f0a7008100ea0066
:100c80008100ea00cf08de0081407800014060006a
:100c90000004e000060032000040eb0020579800fe
:100ca00010c0b3001057980020c0b3003057980010
:100cb000b240800011c0b30040062000800f5100f8
:100cc00001003e008040eb00b340800010c0b30044
:100cd000720c2000828f5100010036000040eb00b2
:100ce00000c060000004e0000600320010c0b30045
:100cf000205798000040eb001057980040c0b30008
:100d0000305798001e509000e14f500004003a0008
:100d10000040eb00005798000040eb00704f980037
:100d20002e5090000004e00004003a000040eb0068
:100d3000005798000040eb00704f98000040800082
:100d4000e10f50009d003a000028ef002040800095
:100d5000e20f500058003200e20f500003003e0046
:100d6000e10f5000230032008b003700e30f5000ea
:100d70007c003200e40f500087003a000428ef00a6
:100d80000e6090000080fb00304088001e0078005c
:100d9000e10f500003003a0010408000404f9800df
:100da000860037001e0078000010a20000f0a700a7
:100db0000000ea000000e9004f00de0080407800fb
:100dc0001e0178006c00690000f0a7000000ea0036
:100dd0000000e9004f00de000040780000c068001d
:100de0000004e0006e00320010408000704f980058
:100df0007200370013408000030f78001e00780057
:100e00000000a20000f0a7000000ea000000e900d6
:100e10004f00de00804078001e0178006b00690002
:100e200000f0a7000000ea000000e9004f00de002b
:100e30000040780000c068000004e00002003200ba
:100e40000628ef005d0037001e0078000010a200a9
:100e500000f0a7000000ea000000e9004f00de00fb
:100e6000804078009e0178006c80690000f0a70047
:100e70000000ea000000e9004f00de0000407800ba
:100e800000c068000004e000040032006e489000da
:100e90000080fb0030408800480037001e007800ca
:100ea000e30f500040003a003e5090000080fb00ed
:100eb00030408800410037001e0078000000a2008a
:100ec00000f0a7000000ea000000e9004f00de008b
:100ed000804078001e0178006b00690000f0a700d8
:100ee0000000ea000000e9004f00de00004078004a
:100ef00000c068000004e000020032000628ef0095
:100f00002e0037001e0078000010a20000f0a7009d
:100f10000000ea000000e9004f00de008040780099
:100f20009e0178006c80690000f0a7000000ea00d4
:100f30000000e9004f00de000040780000c06800bb
:100f40000004e000020032000628ef001b0037001a
:100f50001e007800e30f500015003a000628ef004d
:100f6000160037000628ef001e007800e10f500041
:100f700003003a0010408000504f98000f003700e7
:100f80001e007800e20f50000b003a001040800075
:100f900000579800090037000428ef0007003700c9
:100fa00000000000050037000000000003003700cb
:100fb0000000000001003700000000000e5090000b
:100fc0000080fb00500f98007e4890000080fb00de
:100fd000600f98005e0890000080e80080007800b4
:100fe0000000eb00e3fd07006e0890000080e800c1
:100ff000800078000000eb00e5fd07005e489000ef
:101000000080fb00400f98004e4890000081fb00dc
:10101000ce089000f00f20000088b9000000780092
:1010200000004100400f9800ce089000c02b200027
:10103000808f500002003600c02b2000400f980027
:101040002823ef002023a8000000000000198000e2
:10105000610060000000e000fcff32002003a900f6
:1010600001188000111798001e1090004200de0049
:10107000101798001e109000604f9800e0012000ab
:10108000401988002023a8000000000000198000fb
:10109000610060000000e000fcff32002003a900b6
:1010a00000188000b0408800b04080004200de00a0
:1010b000b040880020002000401988002023a800ac
:1010c0000000000000198000610060000000e000e6
:1010d000fcff32002003a9000218800022179800ac
:1010e000ae109000b00220000088b9000000780027
:1010f0008000d100b04721000008b8000100d100f5
:10110000301798003e1090008000eb004e019000d8
:10111000de019000020040008380480040079800f4
:1011200051079800504080000000e80050408800bf
:101130005140800080bb2000808f50007dfe3a002f
:101140004e009000de00900082bb200003002000d3
:10115000f0fd070040079800510798000a28ef00ab
:101160004e019000de019000220f9800330f98008e
:101170006000b80040079800510798002e019000c9
:10118000be0190002e089000be08900002004000b2
:101190008380480020079800310798001e009000c7
:1011a0000000e800100798001e009000fe0f50009d
:1011b00062fe3a000000eb00100798002e0090003d
:1011c000be009000e201200003002000d1fd0700d6
:1011d0002007980031079800ae019000431798004f
:1011e0004e109000605f98004e1090004800de00a6
:1011f000401798004e109000705f98006000b80093
:0c12000020079800310798004dfe3700d1
:020000040000fa
:10120c000008000018000000000000001808000092
:10121c0008000000020000000f00d0008400e20073
:08122c000100000000000000b9
:020000040000fa
:0200000401f009
:04000800ffff0000f6
:020000040000fa
:0200000401f009
:04000c007bff000076
:020000040000fa
:0200000401f009
:040010003eff0000af
:020000040000fa
:0200000401f009
:040014007fff00006a
:00000001FF
